:100000000C9438000C9418030C9455000C94550073
:100010000C9455000C9455000C9455000C9455000C
:100020000C9455000C9455000C9455000C945500FC
:100030000C9455000C9455000C9455000C945500EC
:100040000C9455000C9455000C9455000C945500DC
:100050000C9455000C9455000C9455000C945500CC
:100060000C9455000C9455000C9455000C945500BC
:1000700011241FBECFEFD4E0DEBFCDBF13E0A0E060
:10008000B1E0E2E8F4E102C005900D92A238B107B8
:10009000D9F723E0A2E8B3E001C01D92AC38B20763
:1000A000E1F70E947C000C943F0A0C94CC0011BA3A
:1000B000939A08956AEA86E30E94AB0386E30E945E
:1000C0009D031F928F931F928AEA8F9382E191E0A2
:1000D0009F938F930E94CB052FEF8FEF9EE02150CF
:1000E00080409040E1F700C000000F900F900F900B
:1000F0000F900F900F900895CF93DF93CDB7DEB799
:100100002D970FB6F894DEBF0FBECDBF84B714BED7
:100110002FEF8FE791E0215080409040E1F700C041
:1001200000C00E94570080E895E20E94E4000E940F
:10013000C9010E94FB0378948AE391E00E94E105E3
:100140002FEF8FE797E0215080409040E1F700C00B
:10015000000028E0EAE0F1E0CE010196DC01019028
:100160000D922A95E1F72BE030E03A87298728E0C5
:100170002B879D878C8749855A856B857C858D85E6
:100180000E945B022FEF8FEF9EE021508040904055
:10019000E1F700C00000EFCF1F920F920FB60F9251
:1001A000112481E28CB9FECF5D9BFECF8CB98A30E1
:1001B00019F48DE00E94D40080E090E008955F9BE8
:1001C000FECF8CB190E008959C0140E050E060E0EB
:1001D00070EB84E090E00E94CF042150310930BDE3
:1001E00029B9579A56985598549A539A52985198B3
:1001F00050988EE880BD6FED70E084ED90E00E9435
:10020000800508950F931F93FC01E61BF70B021B5B
:10021000130BE09FC001E19F900DF09F900D112402
:10022000FA01E61BF70BBF010E94BB04CB01820F52
:10023000931F1F910F910895FB01FC5E8083089529
:100240009C5EFC0180810895DC01E0E0F4E18AE03D
:10025000808300C080818C93808111968C9311974C
:10026000808112968C931297808113968C930895B7
:100270000F931F93CF93DF9300D000D0CDB7DEB79D
:10028000CE0101960E942401898124E6289FC001A5
:1002900011240FEF10E0B8010E94BB04FB01362FC0
:1002A0008A81289FC0011124B8010E94BB04862FB7
:1002B0006E17B0F5AF01552741355105BCF4E6176F
:1002C00050F5AF0155274431510514F512C0AB016B
:1002D00055274431510584F0381788F4CB0199270C
:1002E000813591057CF083E090E024C080E090E0CF
:1002F00021C081E090E01EC082E090E01BC084E05D
:1003000090E018C084E090E015C082E090E012C058
:10031000831758F0E3CF6E17D0F284E090E00AC064
:10032000E61778F284E090E005C0CB019927449766
:10033000ACF6EBCF7E2F0F900F900F900F90DF91C8
:10034000CF911F910F910895CF93DF9300D000D0EC
:10035000CDB7DEB7CE0101960E9424018C8124E640
:10036000289FC0011124EFEFF0E0BF010E94BB0401
:10037000362F8B81289FC0011124BF010E94BB042E
:10038000862F932F0F900F900F900F90DF91CF91AA
:10039000089585B7806C85BF80B7806280BF08955F
:1003A000FB01F85E80830895985EFC0180810895CA
:1003B000CF92DF92EF92FF920F931F93CF93DF9331
:1003C0008BE691E00E94E1050E9470057C010E948D
:1003D0007505C12CD12C00E010E0C1E8D1E00E94ED
:1003E0007005F601F85E808320812817A9F099270F
:1003F0009F938F931F922F93DF92CF92DF93CF9390
:100400000E94CB050F5F1F4F8DB79EB708960FB6A2
:10041000F8949EBF0FBE8DBF9FEFC91AD90AC114B1
:1004200088E0D806E1F6C7010E947505C0E0D0E07B
:10043000E12CF12C0F2EFAEBCF2EF1E0DF2EF02D78
:100440000E947005FE01F85E20812817B1F09927FF
:100450009F938F931F922F93DF93CF93DF92CF922F
:100460000E94CB059FEFE91AF90A8DB79EB708964F
:100470000FB6F8949EBF0FBE8DBF2196C11598E0B0
:10048000D907F1F6FF92EF921F930F9387EF91E058
:100490009F938F930E94CB050F900F900F900F901A
:1004A0000F900F90DF91CF911F910F91FF90EF90E0
:1004B000DF90CF900895CF92DF92FF920F931F931A
:1004C000CF93DF9300D000D01F92CDB7DEB7498322
:1004D0005A83C62E6B837C838D8389819A81282FD2
:1004E0002770F22E8C01169507951695079516958F
:1004F000079580E30E949D0380FDFBCF6F2D6295E1
:10050000660F607E82E30E94AB03602F81E30E944E
:10051000AB036C2D85E30E94AB03D12C1C141D048E
:10052000A4F40F2EF6E3FF2EF02D00E010E0EC8196
:10053000FD81E00FF11F60818F2D0E94AB030F5FE3
:100540001F4FF3940C151D0591F748E068E080E318
:100550000E94DD030F900F900F900F900F90DF918E
:10056000CF911F910F91FF90DF90CF900895CF9280
:10057000DF92EF92FF920F931F93CF93DF9300D000
:1005800000D01F92CDB7DEB749835A83162F6B83F5
:100590007C838D8380E592E00E94E1058A818F93C0
:1005A00089818F9382E692E09F938F930E94CB057F
:1005B000C12ED12C1F921F938AE692E09F938F93B6
:1005C0000E94CB050FB6F894DEBF0FBECDBF1C1442
:1005D0001D04E4F400E010E00F2EF6E4EF2EF3E04B
:1005E000FF2EF02DEC81FD81E00FF11F80811F9225
:1005F0008F93FF92EF920E94CB050F5F1F4F0F90DA
:100600000F900F900F90C016D10661F787E693E028
:100610000E94E1050F900F900F900F900F90DF91C7
:10062000CF911F910F91FF90EF90DF90CF900895A1
:100630001F920F920FB60F921124CF92DF92EF927A
:10064000FF921F932F933F934F935F936F937F93EB
:100650008F939F93AF93BF93CF93DF93EF93FF93CA
:1006600081E60E949D0328E0829FE001112482E63A
:100670000E949D038295869587709E01282BC90153
:100680009F938F938BE792E09F938F930E94CB056C
:1006900085E60E949D038F70C82ED12C1F928F93E8
:1006A00087E892E09F938F930E94CB058DB79EB70A
:1006B00008960FB6F8949EBF0FBE8DBF1C141D0484
:1006C000FCF416E6C0E0D0E00F2EF6E9EF2EF2E0E3
:1006D000FF2EF02D812F0E949D031F928F93DF9399
:1006E000CF93FF92EF920E94CB0521961F5F0F9050
:1006F0000F900F900F900F900F90CC16DD0651F7D2
:1007000040E061E08CE20E94DD03FF91EF91DF9118
:10071000CF91BF91AF919F918F917F916F915F9199
:100720004F913F912F911F91FF90EF90DF90CF90CD
:100730000F900FBE0F901F901895CF93C82FC4989D
:1007400083E00E94B2048C2F0E94B2040E94B6047F
:10075000C49ACF910895CF93DF93D82FC62FC49812
:1007600082E00E94B2048D2F0E94B2048C2F0E945E
:10077000B204C49ADF91CF910895C498813041F0BA
:1007800018F0823049F00CC081E80E94B2040BC01E
:1007900082E80E94B20407C084E80E94B20403C049
:1007A00087E80E94B204C49A0895C49880EA0E941F
:1007B000B2040E94B604C49A08951F93CF93DF93A6
:1007C000182FD62FC42FC49885E00E94B204812F21
:1007D0000E94B2048D2F0E94B2048C2F0E94B2049A
:1007E000C49ADF91CF911F910895C49880EC0E9424
:1007F000B204C49A0895CF930E94A8042FE986E812
:1008000091E0215080409040E1F700C000000E943C
:10081000F5038EEE0E949D03C82F1F928F9384EAEA
:1008200092E09F938F930E94CB05C07E0F900F9014
:100830000F900F90C038B9F084EB92E00E94E10570
:1008400060E88FEF0E94AB038EEE0E949D031F9223
:100850008F9384EA92E09F938F930E94CB050F9031
:100860000F900F900F9061E080E00E94AB0360EE6C
:1008700081E00E94AB036FE780E20E94AB0360EE71
:1008800081E20E94AB0361E08BE20E94AB0360E572
:100890008FEF0E94AB038FED92E00E94E1058EEE98
:1008A0000E949D031F928F9384EA92E09F938F93FF
:1008B0000E94CB050F900F900F900F90CF9108954D
:1008C00082EF92E00E94E10582E30E949D031F9265
:1008D0008F9384E193E09F938F930E94CB0581E3F4
:1008E0000E949D031F928F9382E293E09F938F93C8
:1008F0000E94CB0585E30E949D031F928F9380E3A6
:1009000093E09F938F930E94CB0586E30E949D0303
:100910001F928F938DE393E09F938F930E94CB055B
:100920008BE20E949D031F928F938AE493E09F9332
:100930008F930E94CB0587E593E00E94E1058DB778
:100940009EB744960FB6F8949EBF0FBE8DBF089514
:1009500089E793E00E94E10587B3806B87BB81E55F
:100960008DB908958FB9779BFECF08951FB8779BF7
:10097000FECF8FB1089597FB072E16F4009407D091
:1009800077FD09D00E94EE0407FC05D03EF4909557
:1009900081959F4F0895709561957F4F0895052E1D
:1009A00097FB1EF400940E94E60457FD07D00E94B6
:1009B000020507FC03D04EF40C94E60450954095D4
:1009C000309521953F4F4F4F5F4F089590958095FB
:1009D000709561957F4F8F4F9F4F0895AA1BBB1B4A
:1009E00051E107C0AA1FBB1FA617B70710F0A61B2F
:1009F000B70B881F991F5A95A9F780959095BC0150
:100A0000CD010895A1E21A2EAA1BBB1BFD010DC04A
:100A1000AA1FBB1FEE1FFF1FA217B307E407F507AE
:100A200020F0A21BB30BE40BF50B661F771F881F8A
:100A3000991F1A9469F760957095809590959B0120
:100A4000AC01BD01CF0108958F929F92AF92BF92EA
:100A5000CF92DF92EF92FF92CF93DF93EC01688108
:100A600079818A819B81611571058105910521F448
:100A700064E279ED8BE597E02DE133EF41E050E062
:100A80000E94CF0449015A019B01AC01A7EAB1E4DD
:100A90000E94E6096B017C01ACEEB4EFA501940164
:100AA0000E94F409DC01CB018C0D9D1DAE1DBF1D04
:100AB000B7FF03C00197A109B04888839983AA832F
:100AC000BB839F77DF91CF91FF90EF90DF90CF9026
:100AD000BF90AF909F908F9008950E942405089535
:100AE00080E091E00E9424050895A0E0B0E08093AA
:100AF000000190930101A0930201B09303010895B6
:100B00000F931F93CF93DF93009731F46115710515
:100B100019F480E090E03AC08B01EC016EE070E0E7
:100B200081E090E00E94F207FC01892B91F380E8BC
:100B300083830115110571F01387028781E8838390
:100B40008091820390918303892B21F4F093830396
:100B5000E09382032097C9F0D187C08783818260A8
:100B600083838091840390918503892B71F4F093A2
:100B70008503E09384038091860390918703892BFA
:100B800021F4F0938703E0938603CF01DF91CF91A7
:100B90001F910F910895A0E0B0E0E1EDF5E00C9415
:100BA000090AAE014B5F5F4FFA0161917191AF018C
:100BB00080918403909185030E941106E2E00C94D9
:100BC000250A0F931F93CF93DF93E0918403F09155
:100BD0008503238121FF1BC08C01D0E0C0E0F80118
:100BE00081918F016091840370918503DB011896D8
:100BF000ED91FC911997882331F00995892B79F3B0
:100C0000DFEFCFEFECCF8AE00995892B19F08FEF5A
:100C10009FEF02C08D2F9C2FDF91CF911F910F91DD
:100C20000895ABE0B0E0E7E1F6E00C94F9096C015F
:100C30007B018A01FC0117821682838181FFCCC16E
:100C4000CE0101963C01F6019381F70193FD859158
:100C500093FF81917F01882309F4BAC1853239F469
:100C600093FD859193FF81917F01853229F4B6012F
:100C700090E00E944C09E7CF912C212C312CFFE110
:100C8000F315D8F08B3279F038F4803279F0833272
:100C9000A1F4232D20611DC08D3261F0803369F4F1
:100CA000232D216016C0832D8260382EE32DE46051
:100CB0003E2E2AC0F32DF8601DC037FC2DC020ED5C
:100CC000280F2A3040F08E32B9F436FC81C1232D32
:100CD0002064322E19C036FE06C08AE0989E200D90
:100CE0001124922E11C0EAE02E9E200D1124222EF6
:100CF000F32DF0623F2E08C08C3621F4832D8068DE
:100D0000382E02C0883641F4F70193FD859193FF98
:100D100081917F018111B3CF982F9F7D955493309E
:100D200028F40C5F1F4F9FE399830DC0833631F089
:100D3000833771F0833509F059C021C0F8018081F3
:100D400089830E5F1F4F88248394912C530113C015
:100D50002801F2E04F0E511CF801A080B18036FE50
:100D600003C0692D70E002C06FEF7FEFC5010E94E4
:100D700041094C018201F32DFF773F2E16C0280157
:100D800022E0420E511CF801A080B18036FE03C063
:100D9000692D70E002C06FEF7FEFC5010E942F093F
:100DA0004C01F32DF0683F2E820133FC1BC0822DD5
:100DB00090E088169906B0F4B60180E290E00E94B7
:100DC0004C092A94F4CFF50137FC859137FE8191C7
:100DD0005F01B60190E00E944C0921102A9421E0A5
:100DE000821A91088114910471F7E8C0843611F0D9
:100DF000893641F5F80137FE07C060817181828133
:100E000093810C5F1F4F08C060817181072E000C19
:100E1000880B990B0E5F1F4FF32DFF763F2E97FF28
:100E200009C090958095709561957F4F8F4F9F4F2A
:100E3000F0683F2E2AE030E0A3010E948809882E46
:100E4000861845C0853731F4232D2F7EB22E2AE037
:100E500030E025C0932D997FB92E8F36C1F018F45C
:100E6000883579F0B5C0803719F0883721F0B0C0E7
:100E7000E92FE061BE2EB4FE0DC0FB2DF460BF2E45
:100E800009C034FE0AC0292F2660B22E06C028E011
:100E900030E005C020E130E002C020E132E0F8019E
:100EA000B7FE07C060817181828193810C5F1F4F03
:100EB00006C06081718180E090E00E5F1F4FA3014A
:100EC0000E948809882E8618FB2DFF773F2E36FE5C
:100ED0000DC0232D2E7FA22E891458F434FE0BC092
:100EE00032FC09C0832D8E7EA82E05C0B82CA32C01
:100EF00003C0B82C01C0B92CA4FE0FC0FE01E80D40
:100F0000F11D8081803321F49A2D997EA92E09C08C
:100F1000A2FE06C0B394B39404C08A2D867809F06B
:100F2000B394A3FC11C0A0FE06C0B21488F4280C30
:100F3000922C9B180EC0B21460F4B60180E290E0CF
:100F40000E944C09B394F7CFB21418F42B1802C0C6
:100F5000982C212CA4FE10C0B60180E390E00E94E2
:100F60004C09A2FE17C0A1FC03C088E790E002C0B4
:100F700088E590E0B6010CC08A2D867859F0A1FE74
:100F800002C08BE201C080E2A7FC8DE2B60190E0D6
:100F90000E944C09891438F4B60180E390E00E9465
:100FA0004C099A94F7CF8A94F301E80DF11D8081E2
:100FB000B60190E00E944C098110F5CF222009F47F
:100FC00042CEB60180E290E00E944C092A94F6CF0E
:100FD000F6018681978102C08FEF9FEF2B96E2E1A9
:100FE0000C94150A0F931F93CF93DF93869F800174
:100FF000879F100D969F100D1124C8010E940E08A6
:10100000EC01009729F0A80160E070E00E943A0925
:10101000CE01DF91CF911F910F9108950F931F93F0
:10102000CF93DF938230910510F482E090E0E0915D
:101030008A03F0918B0320E030E0A0E0B0E030972D
:1010400019F1408151810281138148175907C8F075
:101050008417950769F4109731F012960C93129744
:1010600013961C9327C000938A0310938B0322C00E
:101070002115310519F04217530718F49A01BD01E3
:10108000EF01DF01F801DBCF21153105F9F0281B55
:10109000390B2430310580F48A819B8161157105FB
:1010A00021F0FB019383828304C090938B03809390
:1010B0008A03FE01329644C0FE01E20FF31F8193C2
:1010C000919322503109398328833AC020918803B3
:1010D00030918903232B41F42091060130910701BF
:1010E00030938903209388032091040130910501F6
:1010F0002115310541F42DB73EB7409108015091BB
:101100000901241B350BE0918803F0918903E21754
:10111000F307A0F42E1B3F0B2817390778F0AC011A
:101120004E5F5F4F2417350748F04E0F5F1F5093F7
:101130008903409388038193919302C0E0E0F0E03B
:10114000CF01DF91CF911F910F910895CF93DF933E
:10115000009709F481C0FC01329713821282A0919A
:101160008A03B0918B03109781F420813181820F23
:10117000931F20918803309189032817390751F56F
:10118000F0938903E093880367C0ED0120E030E02D
:10119000CE17DF0740F44A815B819E01411551055E
:1011A000F1F0EA01F5CFD383C28340815181840FEE
:1011B000951FC817D90759F488819981840F951F05
:1011C0000296918380838A819B81938382832115F8
:1011D000310529F4F0938B03E0938A033DC0E901C4
:1011E000FB83EA8349915991C40FD51FEC17FD0782
:1011F00061F480819181840F951F0296E9019983A2
:101200008883828193819B838A83E0E0F0E0129659
:101210008D919C911397009719F0FD01DC01F7CF98
:101220008D919C9111979D012E5F3F4F820F931FCF
:1012300020918803309189032817390769F4309782
:1012400029F410928B0310928A0302C01382128237
:10125000B0938903A0938803DF91CF910895FC0197
:101260000590615070400110D8F7809590958E0FD1
:101270009F1F0895DC0101C06D9341505040E0F77D
:101280000895FC016150704001900110D8F78095DD
:1012900090958E0F9F1F08950F931F93CF93DF9309
:1012A000FB01238121FD03C08FEF9FEF2CC022FFA4
:1012B00016C046815781248135814217530744F473
:1012C000A081B1819D012F5F3F4F318320838C939B
:1012D000268137812F5F3F4F3783268314C08B01D0
:1012E000EC01FB010084F185E02D0995892BE1F6E5
:1012F000D80116968D919C911797019617969C93FD
:101300008E931697CE01DF91CF911F910F91089583
:10131000FA01AA27283051F1203181F1E8946F9326
:101320006E7F6E5F7F4F8F4F9F4FAF4FB1E03ED0CC
:10133000B4E03CD0670F781F891F9A1FA11D680F6A
:10134000791F8A1F911DA11D6A0F711D811D911D9D
:10135000A11D20D009F468943F912AE0269F112412
:101360003019305D3193DEF6CF010895462F477076
:10137000405D4193B3E00FD0C9F7F6CF462F4F70D1
:10138000405D4A3318F0495D31FD4052419302D02F
:10139000A9F7EACFB4E0A6959795879577956795D5
:1013A000BA95C9F700976105710508959B01AC01D5
:1013B0000A2E06945795479537952795BA95C9F7FC
:1013C000620F731F841F951FA01D08950E94300A8D
:1013D000A59F900DB49F900DA49F800D911D112489
:1013E0000895B7FF0C94E6090E94E609821B930B4F
:1013F00008952F923F924F925F926F927F928F92B9
:101400009F92AF92BF92CF92DF92EF92FF920F9393
:101410001F93CF93DF93CDB7DEB7CA1BDB0B0FB69D
:10142000F894DEBF0FBECDBF09942A88398848885A
:101430005F846E847D848C849B84AA84B984C884F0
:10144000DF80EE80FD800C811B81AA81B981CE0FE7
:10145000D11D0FB6F894DEBF0FBECDBFED010895CC
:10146000A29FB001B39FC001A39F700D811D1124E5
:10147000911DB29F700D811D1124911D0895F89446
:02148000FFCF9C
:101482000100000000008C032000AAFF0011BEEF43
:1014920097EA457870656374656420726573756C4C
:1014A200743A0925690A41637475616C2072657327
:1014B200756C743A090925690A002D5F2D5F2D5F4D
:1014C2002D5F2D5F2D5F2D5F2D5F2D5F2D5F2D5FBA
:1014D2002D5F2D5F2D5F2D5F2D5F2D5F2D5F2D5FAA
:1014E2002D5F2D5F2D5F2D5F2D5F00537461727430
:1014F200696E67205352414D20746573742E2E2EEF
:101502000057726974652070686173652065727234
:101512006F723A206578745F72616D5B2534645D29
:10152200203D2025303258202873686F756C642066
:1015320062652025303258290A0052657472696545
:1015420076616C207068617365206572726F723AA1
:10155200206578745F72616D5B2534645D203D2087
:1015620025303258202873686F756C6420626520BC
:1015720025303258290A005352414D207465737444
:1015820020636F6D706C6574656420776974682080
:101592000A253464206572726F727320696E207737
:1015A2007269746520706861736520616E64200AD7
:1015B200253464206572726F727320696E207265C1
:1015C2007472696576616C2070686173650A0A00DD
:1015D2002D2D2D43414E5F4D4553534147452D2DF2
:1015E2002D0049443A0925690A0044617461206C5E
:1015F200656E6774683A0925690A006D73675F69E9
:10160200643A0925780A00646174615F73697A65D6
:101612003A0925780A00646174615B25695D3A09BB
:1016220025780A005374617475735F7265673A2096
:1016320025690A004D435032353135206973206ED9
:101642006F7420696E20636F6E666967206D6F64C8
:10165200652061667465722072657365742E004D33
:1016620043502073657475702066696E697368658E
:1016720064002D2D2D2D2D2D2D2D2D2D2D2D2D5467
:101682005820726567732D2D2D2D2D2D2D2D2D2D6D
:101692002D2D2D00545842305349444C3A092569A6
:1016A2000A0054584230534944483A0925690A000D
:1016B20054584230444C433A0925690A005458426E
:1016C2003044303A090925690A0043414E494E54D3
:1016D200453A0925690A002D2D2D2D2D2D2D2D2D53
:1016E2002D2D2D2D2D2D2D2D2D2D2D2D2D2D2D2D28
:1016F2002D2D2D2D2D2D2D2D0053504920696E6934
:02170200740071
:00000001FF
